{
  "_format": "hh-sol-artifact-1",
  "contractName": "VoodooVaultBrokenPass",
  "sourceName": "contracts/VoodooVaultBrokenPass-test.sol",
  "abi": [
    {
      "inputs": [
        {
          "internalType": "string",
          "name": "_baseURI",
          "type": "string"
        }
      ],
      "stateMutability": "nonpayable",
      "type": "constructor"
    },
    {
      "anonymous": false,
      "inputs": [
        {
          "indexed": true,
          "internalType": "address",
          "name": "account",
          "type": "address"
        },
        {
          "indexed": true,
          "internalType": "address",
          "name": "operator",
          "type": "address"
        },
        {
          "indexed": false,
          "internalType": "bool",
          "name": "approved",
          "type": "bool"
        }
      ],
      "name": "ApprovalForAll",
      "type": "event"
    },
    {
      "anonymous": false,
      "inputs": [
        {
          "indexed": true,
          "internalType": "address",
          "name": "previousOwner",
          "type": "address"
        },
        {
          "indexed": true,
          "internalType": "address",
          "name": "newOwner",
          "type": "address"
        }
      ],
      "name": "OwnershipTransferred",
      "type": "event"
    },
    {
      "anonymous": false,
      "inputs": [
        {
          "indexed": true,
          "internalType": "address",
          "name": "operator",
          "type": "address"
        },
        {
          "indexed": true,
          "internalType": "address",
          "name": "from",
          "type": "address"
        },
        {
          "indexed": true,
          "internalType": "address",
          "name": "to",
          "type": "address"
        },
        {
          "indexed": false,
          "internalType": "uint256[]",
          "name": "ids",
          "type": "uint256[]"
        },
        {
          "indexed": false,
          "internalType": "uint256[]",
          "name": "values",
          "type": "uint256[]"
        }
      ],
      "name": "TransferBatch",
      "type": "event"
    },
    {
      "anonymous": false,
      "inputs": [
        {
          "indexed": true,
          "internalType": "address",
          "name": "operator",
          "type": "address"
        },
        {
          "indexed": true,
          "internalType": "address",
          "name": "from",
          "type": "address"
        },
        {
          "indexed": true,
          "internalType": "address",
          "name": "to",
          "type": "address"
        },
        {
          "indexed": false,
          "internalType": "uint256",
          "name": "id",
          "type": "uint256"
        },
        {
          "indexed": false,
          "internalType": "uint256",
          "name": "value",
          "type": "uint256"
        }
      ],
      "name": "TransferSingle",
      "type": "event"
    },
    {
      "anonymous": false,
      "inputs": [
        {
          "indexed": false,
          "internalType": "string",
          "name": "value",
          "type": "string"
        },
        {
          "indexed": true,
          "internalType": "uint256",
          "name": "id",
          "type": "uint256"
        }
      ],
      "name": "URI",
      "type": "event"
    },
    {
      "inputs": [],
      "name": "MAX_SUPPLY",
      "outputs": [
        {
          "internalType": "uint256",
          "name": "",
          "type": "uint256"
        }
      ],
      "stateMutability": "view",
      "type": "function"
    },
    {
      "inputs": [],
      "name": "NAME",
      "outputs": [
        {
          "internalType": "string",
          "name": "",
          "type": "string"
        }
      ],
      "stateMutability": "view",
      "type": "function"
    },
    {
      "inputs": [],
      "name": "SYMBOL",
      "outputs": [
        {
          "internalType": "string",
          "name": "",
          "type": "string"
        }
      ],
      "stateMutability": "view",
      "type": "function"
    },
    {
      "inputs": [],
      "name": "VV_COMMUNITY_VAULT",
      "outputs": [
        {
          "internalType": "uint256",
          "name": "",
          "type": "uint256"
        }
      ],
      "stateMutability": "view",
      "type": "function"
    },
    {
      "inputs": [],
      "name": "VV_PER_MINT",
      "outputs": [
        {
          "internalType": "uint256",
          "name": "",
          "type": "uint256"
        }
      ],
      "stateMutability": "view",
      "type": "function"
    },
    {
      "inputs": [
        {
          "internalType": "address",
          "name": "account",
          "type": "address"
        },
        {
          "internalType": "uint256",
          "name": "id",
          "type": "uint256"
        }
      ],
      "name": "balanceOf",
      "outputs": [
        {
          "internalType": "uint256",
          "name": "",
          "type": "uint256"
        }
      ],
      "stateMutability": "view",
      "type": "function"
    },
    {
      "inputs": [
        {
          "internalType": "address[]",
          "name": "accounts",
          "type": "address[]"
        },
        {
          "internalType": "uint256[]",
          "name": "ids",
          "type": "uint256[]"
        }
      ],
      "name": "balanceOfBatch",
      "outputs": [
        {
          "internalType": "uint256[]",
          "name": "",
          "type": "uint256[]"
        }
      ],
      "stateMutability": "view",
      "type": "function"
    },
    {
      "inputs": [
        {
          "internalType": "address",
          "name": "account",
          "type": "address"
        },
        {
          "internalType": "uint256",
          "name": "id",
          "type": "uint256"
        },
        {
          "internalType": "uint256",
          "name": "value",
          "type": "uint256"
        }
      ],
      "name": "burn",
      "outputs": [],
      "stateMutability": "nonpayable",
      "type": "function"
    },
    {
      "inputs": [
        {
          "internalType": "address",
          "name": "account",
          "type": "address"
        },
        {
          "internalType": "uint256[]",
          "name": "ids",
          "type": "uint256[]"
        },
        {
          "internalType": "uint256[]",
          "name": "values",
          "type": "uint256[]"
        }
      ],
      "name": "burnBatch",
      "outputs": [],
      "stateMutability": "nonpayable",
      "type": "function"
    },
    {
      "inputs": [
        {
          "internalType": "uint256",
          "name": "tokenQuantity",
          "type": "uint256"
        }
      ],
      "name": "buy",
      "outputs": [],
      "stateMutability": "payable",
      "type": "function"
    },
    {
      "inputs": [
        {
          "internalType": "address",
          "name": "account",
          "type": "address"
        },
        {
          "internalType": "address",
          "name": "operator",
          "type": "address"
        }
      ],
      "name": "isApprovedForAll",
      "outputs": [
        {
          "internalType": "bool",
          "name": "",
          "type": "bool"
        }
      ],
      "stateMutability": "view",
      "type": "function"
    },
    {
      "inputs": [],
      "name": "lockMetadata",
      "outputs": [],
      "stateMutability": "nonpayable",
      "type": "function"
    },
    {
      "inputs": [],
      "name": "locked",
      "outputs": [
        {
          "internalType": "bool",
          "name": "",
          "type": "bool"
        }
      ],
      "stateMutability": "view",
      "type": "function"
    },
    {
      "inputs": [],
      "name": "mintCommunity",
      "outputs": [],
      "stateMutability": "nonpayable",
      "type": "function"
    },
    {
      "inputs": [],
      "name": "mintPrice",
      "outputs": [
        {
          "internalType": "uint256",
          "name": "",
          "type": "uint256"
        }
      ],
      "stateMutability": "view",
      "type": "function"
    },
    {
      "inputs": [],
      "name": "name",
      "outputs": [
        {
          "internalType": "string",
          "name": "",
          "type": "string"
        }
      ],
      "stateMutability": "pure",
      "type": "function"
    },
    {
      "inputs": [],
      "name": "owner",
      "outputs": [
        {
          "internalType": "address",
          "name": "",
          "type": "address"
        }
      ],
      "stateMutability": "view",
      "type": "function"
    },
    {
      "inputs": [],
      "name": "renounceOwnership",
      "outputs": [],
      "stateMutability": "nonpayable",
      "type": "function"
    },
    {
      "inputs": [
        {
          "internalType": "address",
          "name": "from",
          "type": "address"
        },
        {
          "internalType": "address",
          "name": "to",
          "type": "address"
        },
        {
          "internalType": "uint256[]",
          "name": "ids",
          "type": "uint256[]"
        },
        {
          "internalType": "uint256[]",
          "name": "amounts",
          "type": "uint256[]"
        },
        {
          "internalType": "bytes",
          "name": "data",
          "type": "bytes"
        }
      ],
      "name": "safeBatchTransferFrom",
      "outputs": [],
      "stateMutability": "nonpayable",
      "type": "function"
    },
    {
      "inputs": [
        {
          "internalType": "address",
          "name": "from",
          "type": "address"
        },
        {
          "internalType": "address",
          "name": "to",
          "type": "address"
        },
        {
          "internalType": "uint256",
          "name": "id",
          "type": "uint256"
        },
        {
          "internalType": "uint256",
          "name": "amount",
          "type": "uint256"
        },
        {
          "internalType": "bytes",
          "name": "data",
          "type": "bytes"
        }
      ],
      "name": "safeTransferFrom",
      "outputs": [],
      "stateMutability": "nonpayable",
      "type": "function"
    },
    {
      "inputs": [],
      "name": "saleLive",
      "outputs": [
        {
          "internalType": "bool",
          "name": "",
          "type": "bool"
        }
      ],
      "stateMutability": "view",
      "type": "function"
    },
    {
      "inputs": [
        {
          "internalType": "address",
          "name": "",
          "type": "address"
        }
      ],
      "name": "salePurchasesOfWallet",
      "outputs": [
        {
          "internalType": "uint256",
          "name": "",
          "type": "uint256"
        }
      ],
      "stateMutability": "view",
      "type": "function"
    },
    {
      "inputs": [
        {
          "internalType": "address",
          "name": "operator",
          "type": "address"
        },
        {
          "internalType": "bool",
          "name": "approved",
          "type": "bool"
        }
      ],
      "name": "setApprovalForAll",
      "outputs": [],
      "stateMutability": "nonpayable",
      "type": "function"
    },
    {
      "inputs": [
        {
          "internalType": "string",
          "name": "_baseURI",
          "type": "string"
        }
      ],
      "name": "setBaseUri",
      "outputs": [],
      "stateMutability": "nonpayable",
      "type": "function"
    },
    {
      "inputs": [
        {
          "internalType": "bytes4",
          "name": "interfaceId",
          "type": "bytes4"
        }
      ],
      "name": "supportsInterface",
      "outputs": [
        {
          "internalType": "bool",
          "name": "",
          "type": "bool"
        }
      ],
      "stateMutability": "view",
      "type": "function"
    },
    {
      "inputs": [],
      "name": "symbol",
      "outputs": [
        {
          "internalType": "string",
          "name": "",
          "type": "string"
        }
      ],
      "stateMutability": "pure",
      "type": "function"
    },
    {
      "inputs": [],
      "name": "toggleSaleStatus",
      "outputs": [],
      "stateMutability": "nonpayable",
      "type": "function"
    },
    {
      "inputs": [],
      "name": "tokenIdToMint",
      "outputs": [
        {
          "internalType": "uint256",
          "name": "",
          "type": "uint256"
        }
      ],
      "stateMutability": "view",
      "type": "function"
    },
    {
      "inputs": [],
      "name": "totalSupply",
      "outputs": [
        {
          "internalType": "uint256",
          "name": "",
          "type": "uint256"
        }
      ],
      "stateMutability": "view",
      "type": "function"
    },
    {
      "inputs": [
        {
          "internalType": "address",
          "name": "newOwner",
          "type": "address"
        }
      ],
      "name": "transferOwnership",
      "outputs": [],
      "stateMutability": "nonpayable",
      "type": "function"
    },
    {
      "inputs": [
        {
          "internalType": "uint256",
          "name": "id",
          "type": "uint256"
        }
      ],
      "name": "uri",
      "outputs": [
        {
          "internalType": "string",
          "name": "",
          "type": "string"
        }
      ],
      "stateMutability": "view",
      "type": "function"
    },
    {
      "inputs": [],
      "name": "withdraw",
      "outputs": [],
      "stateMutability": "nonpayable",
      "type": "function"
    }
  ],
  "bytecode": "0x608060405273a8e5a5ad2e6cd7d350407a887f8005fdcef31e3d600660006101000a81548173ffffffffffffffffffffffffffffffffffffffff021916908373ffffffffffffffffffffffffffffffffffffffff1602179055506000600660146101000a81548160ff0219169083151502179055506000600660156101000a81548160ff0219169083151502179055503480156200009c57600080fd5b5060405162004e4f38038062004e4f8339818101604052810190620000c291906200044c565b80620000d4816200011560201b60201c565b50620000f5620000e96200013160201b60201c565b6200013960201b60201c565b80600590805190602001906200010d929190620001ff565b505062000502565b80600290805190602001906200012d929190620001ff565b5050565b600033905090565b6000600360009054906101000a900473ffffffffffffffffffffffffffffffffffffffff16905081600360006101000a81548173ffffffffffffffffffffffffffffffffffffffff021916908373ffffffffffffffffffffffffffffffffffffffff1602179055508173ffffffffffffffffffffffffffffffffffffffff168173ffffffffffffffffffffffffffffffffffffffff167f8be0079c531659141344cd1fd0a4f28419497f9722a3daafe3b4186f6b6457e060405160405180910390a35050565b8280546200020d90620004cc565b90600052602060002090601f0160209004810192826200023157600085556200027d565b82601f106200024c57805160ff19168380011785556200027d565b828001600101855582156200027d579182015b828111156200027c5782518255916020019190600101906200025f565b5b5090506200028c919062000290565b5090565b5b80821115620002ab57600081600090555060010162000291565b5090565b6000604051905090565b600080fd5b600080fd5b600080fd5b600080fd5b6000601f19601f8301169050919050565b7f4e487b7100000000000000000000000000000000000000000000000000000000600052604160045260246000fd5b6200031882620002cd565b810181811067ffffffffffffffff821117156200033a5762000339620002de565b5b80604052505050565b60006200034f620002af565b90506200035d82826200030d565b919050565b600067ffffffffffffffff82111562000380576200037f620002de565b5b6200038b82620002cd565b9050602081019050919050565b60005b83811015620003b85780820151818401526020810190506200039b565b83811115620003c8576000848401525b50505050565b6000620003e5620003df8462000362565b62000343565b905082815260208101848484011115620004045762000403620002c8565b5b6200041184828562000398565b509392505050565b600082601f830112620004315762000430620002c3565b5b815162000443848260208601620003ce565b91505092915050565b600060208284031215620004655762000464620002b9565b5b600082015167ffffffffffffffff811115620004865762000485620002be565b5b620004948482850162000419565b91505092915050565b7f4e487b7100000000000000000000000000000000000000000000000000000000600052602260045260246000fd5b60006002820490506001821680620004e557607f821691505b60208210811415620004fc57620004fb6200049d565b5b50919050565b61493d80620005126000396000f3fe6080604052600436106101e25760003560e01c806395d89b4111610102578063cf30901211610095578063f242432a11610064578063f242432a1461068c578063f2fde38b146106b5578063f5298aca146106de578063f76f8d7814610707576101e2565b8063cf309012146105dd578063d96a094a14610608578063e081b78114610624578063e985e9c51461064f576101e2565b8063a0bcfc7f116100d1578063a0bcfc7f14610535578063a22cb4651461055e578063a3f4df7e14610587578063b186c88b146105b2576101e2565b806395d89b411461049f57806397901c89146104ca578063989bdbb6146105075780639c77eead1461051e576101e2565b80633ccfd60b1161017a5780636817c76c116101495780636817c76c146104095780636b20c45414610434578063715018a61461045d5780638da5cb5b14610474576101e2565b80633ccfd60b1461035f5780634e1273f4146103765780635c5290d4146103b357806363dd574f146103de576101e2565b80630e89341c116101b65780630e89341c146102a357806318160ddd146102e05780632eb2c2d61461030b57806332cb6b0c14610334576101e2565b8062fdd58e146101e757806301ffc9a714610224578063049c5c491461026157806306fdde0314610278575b600080fd5b3480156101f357600080fd5b5061020e60048036038101906102099190612d16565b610732565b60405161021b9190612d65565b60405180910390f35b34801561023057600080fd5b5061024b60048036038101906102469190612dd8565b6107fb565b6040516102589190612e20565b60405180910390f35b34801561026d57600080fd5b506102766108dd565b005b34801561028457600080fd5b5061028d610985565b60405161029a9190612ed4565b60405180910390f35b3480156102af57600080fd5b506102ca60048036038101906102c59190612ef6565b6109c2565b6040516102d79190612ed4565b60405180910390f35b3480156102ec57600080fd5b506102f5610a8a565b6040516103029190612d65565b60405180910390f35b34801561031757600080fd5b50610332600480360381019061032d9190613120565b610a94565b005b34801561034057600080fd5b50610349610b35565b6040516103569190612d65565b60405180910390f35b34801561036b57600080fd5b50610374610b3a565b005b34801561038257600080fd5b5061039d600480360381019061039891906132b2565b610c27565b6040516103aa91906133e8565b60405180910390f35b3480156103bf57600080fd5b506103c8610d40565b6040516103d59190612d65565b60405180910390f35b3480156103ea57600080fd5b506103f3610d45565b6040516104009190612d65565b60405180910390f35b34801561041557600080fd5b5061041e610d4a565b60405161042b9190612d65565b60405180910390f35b34801561044057600080fd5b5061045b6004803603810190610456919061340a565b610d55565b005b34801561046957600080fd5b50610472610df2565b005b34801561048057600080fd5b50610489610e7a565b60405161049691906134a4565b60405180910390f35b3480156104ab57600080fd5b506104b4610ea4565b6040516104c19190612ed4565b60405180910390f35b3480156104d657600080fd5b506104f160048036038101906104ec91906134bf565b610ee1565b6040516104fe9190612d65565b60405180910390f35b34801561051357600080fd5b5061051c610ef9565b005b34801561052a57600080fd5b50610533610f92565b005b34801561054157600080fd5b5061055c60048036038101906105579190613547565b611099565b005b34801561056a57600080fd5b50610585600480360381019061058091906135c0565b61117b565b005b34801561059357600080fd5b5061059c611191565b6040516105a99190612ed4565b60405180910390f35b3480156105be57600080fd5b506105c76111ca565b6040516105d49190612d65565b60405180910390f35b3480156105e957600080fd5b506105f26111cf565b6040516105ff9190612e20565b60405180910390f35b610622600480360381019061061d9190612ef6565b6111e2565b005b34801561063057600080fd5b50610639611442565b6040516106469190612e20565b60405180910390f35b34801561065b57600080fd5b5061067660048036038101906106719190613600565b611455565b6040516106839190612e20565b60405180910390f35b34801561069857600080fd5b506106b360048036038101906106ae9190613640565b6114e9565b005b3480156106c157600080fd5b506106dc60048036038101906106d791906134bf565b61158a565b005b3480156106ea57600080fd5b50610705600480360381019061070091906136d7565b611682565b005b34801561071357600080fd5b5061071c61171f565b6040516107299190612ed4565b60405180910390f35b60008073ffffffffffffffffffffffffffffffffffffffff168373ffffffffffffffffffffffffffffffffffffffff1614156107a3576040517f08c379a000000000000000000000000000000000000000000000000000000000815260040161079a9061379c565b60405180910390fd5b60008083815260200190815260200160002060008473ffffffffffffffffffffffffffffffffffffffff1673ffffffffffffffffffffffffffffffffffffffff16815260200190815260200160002054905092915050565b60007fd9b67a26000000000000000000000000000000000000000000000000000000007bffffffffffffffffffffffffffffffffffffffffffffffffffffffff1916827bffffffffffffffffffffffffffffffffffffffffffffffffffffffff191614806108c657507f0e89341c000000000000000000000000000000000000000000000000000000007bffffffffffffffffffffffffffffffffffffffffffffffffffffffff1916827bffffffffffffffffffffffffffffffffffffffffffffffffffffffff1916145b806108d657506108d582611758565b5b9050919050565b6108e56117c2565b73ffffffffffffffffffffffffffffffffffffffff16610903610e7a565b73ffffffffffffffffffffffffffffffffffffffff1614610959576040517f08c379a000000000000000000000000000000000000000000000000000000000815260040161095090613808565b60405180910390fd5b600660149054906101000a900460ff1615600660146101000a81548160ff021916908315150217905550565b60606040518060400160405280601881526020017f564f4f444f4f205641554c542042524f4b454e20504153530000000000000000815250905090565b60606000600580546109d390613857565b905011610a15576040517f08c379a0000000000000000000000000000000000000000000000000000000008152600401610a0c906138d5565b60405180910390fd5b60008214610a58576040517f08c379a0000000000000000000000000000000000000000000000000000000008152600401610a4f90613941565b60405180910390fd5b6005610a63836117ca565b604051602001610a74929190613a31565b6040516020818303038152906040529050919050565b6000600454905090565b610a9c6117c2565b73ffffffffffffffffffffffffffffffffffffffff168573ffffffffffffffffffffffffffffffffffffffff161480610ae25750610ae185610adc6117c2565b611455565b5b610b21576040517f08c379a0000000000000000000000000000000000000000000000000000000008152600401610b1890613ac7565b60405180910390fd5b610b2e858585858561192b565b5050505050565b601481565b610b426117c2565b73ffffffffffffffffffffffffffffffffffffffff16610b60610e7a565b73ffffffffffffffffffffffffffffffffffffffff1614610bb6576040517f08c379a0000000000000000000000000000000000000000000000000000000008152600401610bad90613808565b60405180910390fd5b6000479050600660009054906101000a900473ffffffffffffffffffffffffffffffffffffffff1673ffffffffffffffffffffffffffffffffffffffff166108fc829081150290604051600060405180830381858888f19350505050158015610c23573d6000803e3d6000fd5b5050565b60608151835114610c6d576040517f08c379a0000000000000000000000000000000000000000000000000000000008152600401610c6490613b59565b60405180910390fd5b6000835167ffffffffffffffff811115610c8a57610c89612f28565b5b604051908082528060200260200182016040528015610cb85781602001602082028036833780820191505090505b50905060005b8451811015610d3557610d05858281518110610cdd57610cdc613b79565b5b6020026020010151858381518110610cf857610cf7613b79565b5b6020026020010151610732565b828281518110610d1857610d17613b79565b5b60200260200101818152505080610d2e90613bd7565b9050610cbe565b508091505092915050565b600c81565b600381565b662386f26fc1000081565b610d5d6117c2565b73ffffffffffffffffffffffffffffffffffffffff168373ffffffffffffffffffffffffffffffffffffffff161480610da35750610da283610d9d6117c2565b611455565b5b610de2576040517f08c379a0000000000000000000000000000000000000000000000000000000008152600401610dd990613c92565b60405180910390fd5b610ded838383611c3f565b505050565b610dfa6117c2565b73ffffffffffffffffffffffffffffffffffffffff16610e18610e7a565b73ffffffffffffffffffffffffffffffffffffffff1614610e6e576040517f08c379a0000000000000000000000000000000000000000000000000000000008152600401610e6590613808565b60405180910390fd5b610e786000611ef0565b565b6000600360009054906101000a900473ffffffffffffffffffffffffffffffffffffffff16905090565b60606040518060400160405280600481526020017f5656425000000000000000000000000000000000000000000000000000000000815250905090565b60076020528060005260406000206000915090505481565b610f016117c2565b73ffffffffffffffffffffffffffffffffffffffff16610f1f610e7a565b73ffffffffffffffffffffffffffffffffffffffff1614610f75576040517f08c379a0000000000000000000000000000000000000000000000000000000008152600401610f6c90613808565b60405180910390fd5b6001600660156101000a81548160ff021916908315150217905550565b610f9a6117c2565b73ffffffffffffffffffffffffffffffffffffffff16610fb8610e7a565b73ffffffffffffffffffffffffffffffffffffffff161461100e576040517f08c379a000000000000000000000000000000000000000000000000000000000815260040161100590613808565b60405180910390fd5b6014600c60045461101f9190613cb2565b1115611060576040517f08c379a000000000000000000000000000000000000000000000000000000000815260040161105790613d54565b60405180910390fd5b600c600460008282546110739190613cb2565b92505081905550611097336000600c60405180602001604052806000815250611fb6565b565b6110a16117c2565b73ffffffffffffffffffffffffffffffffffffffff166110bf610e7a565b73ffffffffffffffffffffffffffffffffffffffff1614611115576040517f08c379a000000000000000000000000000000000000000000000000000000000815260040161110c90613808565b60405180910390fd5b600660159054906101000a900460ff1615611165576040517f08c379a000000000000000000000000000000000000000000000000000000000815260040161115c90613dc0565b60405180910390fd5b818160059190611176929190612bcb565b505050565b61118d6111866117c2565b838361214c565b5050565b6040518060400160405280601881526020017f564f4f444f4f205641554c542042524f4b454e2050415353000000000000000081525081565b600081565b600660159054906101000a900460ff1681565b600660149054906101000a900460ff16611231576040517f08c379a000000000000000000000000000000000000000000000000000000000815260040161122890613e2c565b60405180910390fd5b600081118015611242575060038111155b611281576040517f08c379a000000000000000000000000000000000000000000000000000000000815260040161127890613ebe565b60405180910390fd5b6014816004546112919190613cb2565b11156112d2576040517f08c379a00000000000000000000000000000000000000000000000000000000081526004016112c990613d54565b60405180910390fd5b600381600760003373ffffffffffffffffffffffffffffffffffffffff1673ffffffffffffffffffffffffffffffffffffffff1681526020019081526020016000205461131f9190613cb2565b1115611360576040517f08c379a000000000000000000000000000000000000000000000000000000000815260040161135790613f2a565b60405180910390fd5b3481662386f26fc100006113749190613f4a565b146113b4576040517f08c379a00000000000000000000000000000000000000000000000000000000081526004016113ab90613ff0565b60405180910390fd5b80600460008282546113c69190613cb2565b9250508190555080600760003373ffffffffffffffffffffffffffffffffffffffff1673ffffffffffffffffffffffffffffffffffffffff168152602001908152602001600020600082825461141c9190613cb2565b9250508190555061143f3360008360405180602001604052806000815250611fb6565b50565b600660149054906101000a900460ff1681565b6000600160008473ffffffffffffffffffffffffffffffffffffffff1673ffffffffffffffffffffffffffffffffffffffff16815260200190815260200160002060008373ffffffffffffffffffffffffffffffffffffffff1673ffffffffffffffffffffffffffffffffffffffff16815260200190815260200160002060009054906101000a900460ff16905092915050565b6114f16117c2565b73ffffffffffffffffffffffffffffffffffffffff168573ffffffffffffffffffffffffffffffffffffffff1614806115375750611536856115316117c2565b611455565b5b611576576040517f08c379a000000000000000000000000000000000000000000000000000000000815260040161156d90613c92565b60405180910390fd5b61158385858585856122b9565b5050505050565b6115926117c2565b73ffffffffffffffffffffffffffffffffffffffff166115b0610e7a565b73ffffffffffffffffffffffffffffffffffffffff1614611606576040517f08c379a00000000000000000000000000000000000000000000000000000000081526004016115fd90613808565b60405180910390fd5b600073ffffffffffffffffffffffffffffffffffffffff168173ffffffffffffffffffffffffffffffffffffffff161415611676576040517f08c379a000000000000000000000000000000000000000000000000000000000815260040161166d90614082565b60405180910390fd5b61167f81611ef0565b50565b61168a6117c2565b73ffffffffffffffffffffffffffffffffffffffff168373ffffffffffffffffffffffffffffffffffffffff1614806116d057506116cf836116ca6117c2565b611455565b5b61170f576040517f08c379a000000000000000000000000000000000000000000000000000000000815260040161170690613c92565b60405180910390fd5b61171a83838361253b565b505050565b6040518060400160405280600481526020017f565642500000000000000000000000000000000000000000000000000000000081525081565b60007f01ffc9a7000000000000000000000000000000000000000000000000000000007bffffffffffffffffffffffffffffffffffffffffffffffffffffffff1916827bffffffffffffffffffffffffffffffffffffffffffffffffffffffff1916149050919050565b600033905090565b60606000821415611812576040518060400160405280600181526020017f30000000000000000000000000000000000000000000000000000000000000008152509050611926565b600082905060005b6000821461184457808061182d90613bd7565b915050600a8261183d91906140d1565b915061181a565b60008167ffffffffffffffff8111156118605761185f612f28565b5b6040519080825280601f01601f1916602001820160405280156118925781602001600182028036833780820191505090505b5090505b6000851461191f576001826118ab9190614102565b9150600a856118ba9190614136565b60306118c69190613cb2565b60f81b8183815181106118dc576118db613b79565b5b60200101907effffffffffffffffffffffffffffffffffffffffffffffffffffffffffffff1916908160001a905350600a8561191891906140d1565b9450611896565b8093505050505b919050565b815183511461196f576040517f08c379a0000000000000000000000000000000000000000000000000000000008152600401611966906141d9565b60405180910390fd5b600073ffffffffffffffffffffffffffffffffffffffff168473ffffffffffffffffffffffffffffffffffffffff1614156119df576040517f08c379a00000000000000000000000000000000000000000000000000000000081526004016119d69061426b565b60405180910390fd5b60006119e96117c2565b90506119f9818787878787612758565b60005b8451811015611baa576000858281518110611a1a57611a19613b79565b5b602002602001015190506000858381518110611a3957611a38613b79565b5b60200260200101519050600080600084815260200190815260200160002060008b73ffffffffffffffffffffffffffffffffffffffff1673ffffffffffffffffffffffffffffffffffffffff16815260200190815260200160002054905081811015611ada576040517f08c379a0000000000000000000000000000000000000000000000000000000008152600401611ad1906142fd565b60405180910390fd5b81810360008085815260200190815260200160002060008c73ffffffffffffffffffffffffffffffffffffffff1673ffffffffffffffffffffffffffffffffffffffff168152602001908152602001600020819055508160008085815260200190815260200160002060008b73ffffffffffffffffffffffffffffffffffffffff1673ffffffffffffffffffffffffffffffffffffffff1681526020019081526020016000206000828254611b8f9190613cb2565b9250508190555050505080611ba390613bd7565b90506119fc565b508473ffffffffffffffffffffffffffffffffffffffff168673ffffffffffffffffffffffffffffffffffffffff168273ffffffffffffffffffffffffffffffffffffffff167f4a39dc06d4c0dbc64b70af90fd698a233a518aa5d07e595d983b8c0526c8f7fb8787604051611c2192919061431d565b60405180910390a4611c37818787878787612760565b505050505050565b600073ffffffffffffffffffffffffffffffffffffffff168373ffffffffffffffffffffffffffffffffffffffff161415611caf576040517f08c379a0000000000000000000000000000000000000000000000000000000008152600401611ca6906143c6565b60405180910390fd5b8051825114611cf3576040517f08c379a0000000000000000000000000000000000000000000000000000000008152600401611cea906141d9565b60405180910390fd5b6000611cfd6117c2565b9050611d1d81856000868660405180602001604052806000815250612758565b60005b8351811015611e6a576000848281518110611d3e57611d3d613b79565b5b602002602001015190506000848381518110611d5d57611d5c613b79565b5b60200260200101519050600080600084815260200190815260200160002060008973ffffffffffffffffffffffffffffffffffffffff1673ffffffffffffffffffffffffffffffffffffffff16815260200190815260200160002054905081811015611dfe576040517f08c379a0000000000000000000000000000000000000000000000000000000008152600401611df590614458565b60405180910390fd5b81810360008085815260200190815260200160002060008a73ffffffffffffffffffffffffffffffffffffffff1673ffffffffffffffffffffffffffffffffffffffff168152602001908152602001600020819055505050508080611e6290613bd7565b915050611d20565b50600073ffffffffffffffffffffffffffffffffffffffff168473ffffffffffffffffffffffffffffffffffffffff168273ffffffffffffffffffffffffffffffffffffffff167f4a39dc06d4c0dbc64b70af90fd698a233a518aa5d07e595d983b8c0526c8f7fb8686604051611ee292919061431d565b60405180910390a450505050565b6000600360009054906101000a900473ffffffffffffffffffffffffffffffffffffffff16905081600360006101000a81548173ffffffffffffffffffffffffffffffffffffffff021916908373ffffffffffffffffffffffffffffffffffffffff1602179055508173ffffffffffffffffffffffffffffffffffffffff168173ffffffffffffffffffffffffffffffffffffffff167f8be0079c531659141344cd1fd0a4f28419497f9722a3daafe3b4186f6b6457e060405160405180910390a35050565b600073ffffffffffffffffffffffffffffffffffffffff168473ffffffffffffffffffffffffffffffffffffffff161415612026576040517f08c379a000000000000000000000000000000000000000000000000000000000815260040161201d906144ea565b60405180910390fd5b60006120306117c2565b90506120518160008761204288612947565b61204b88612947565b87612758565b8260008086815260200190815260200160002060008773ffffffffffffffffffffffffffffffffffffffff1673ffffffffffffffffffffffffffffffffffffffff16815260200190815260200160002060008282546120b09190613cb2565b925050819055508473ffffffffffffffffffffffffffffffffffffffff16600073ffffffffffffffffffffffffffffffffffffffff168273ffffffffffffffffffffffffffffffffffffffff167fc3d58168c5ae7397731d063d5bbf3d657854427343f4c083240f7aacaa2d0f62878760405161212e92919061450a565b60405180910390a4612145816000878787876129c1565b5050505050565b8173ffffffffffffffffffffffffffffffffffffffff168373ffffffffffffffffffffffffffffffffffffffff1614156121bb576040517f08c379a00000000000000000000000000000000000000000000000000000000081526004016121b2906145a5565b60405180910390fd5b80600160008573ffffffffffffffffffffffffffffffffffffffff1673ffffffffffffffffffffffffffffffffffffffff16815260200190815260200160002060008473ffffffffffffffffffffffffffffffffffffffff1673ffffffffffffffffffffffffffffffffffffffff16815260200190815260200160002060006101000a81548160ff0219169083151502179055508173ffffffffffffffffffffffffffffffffffffffff168373ffffffffffffffffffffffffffffffffffffffff167f17307eab39ab6107e8899845ad3d59bd9653f200f220920489ca2b5937696c31836040516122ac9190612e20565b60405180910390a3505050565b600073ffffffffffffffffffffffffffffffffffffffff168473ffffffffffffffffffffffffffffffffffffffff161415612329576040517f08c379a00000000000000000000000000000000000000000000000000000000081526004016123209061426b565b60405180910390fd5b60006123336117c2565b905061235381878761234488612947565b61234d88612947565b87612758565b600080600086815260200190815260200160002060008873ffffffffffffffffffffffffffffffffffffffff1673ffffffffffffffffffffffffffffffffffffffff168152602001908152602001600020549050838110156123ea576040517f08c379a00000000000000000000000000000000000000000000000000000000081526004016123e1906142fd565b60405180910390fd5b83810360008087815260200190815260200160002060008973ffffffffffffffffffffffffffffffffffffffff1673ffffffffffffffffffffffffffffffffffffffff168152602001908152602001600020819055508360008087815260200190815260200160002060008873ffffffffffffffffffffffffffffffffffffffff1673ffffffffffffffffffffffffffffffffffffffff168152602001908152602001600020600082825461249f9190613cb2565b925050819055508573ffffffffffffffffffffffffffffffffffffffff168773ffffffffffffffffffffffffffffffffffffffff168373ffffffffffffffffffffffffffffffffffffffff167fc3d58168c5ae7397731d063d5bbf3d657854427343f4c083240f7aacaa2d0f62888860405161251c92919061450a565b60405180910390a46125328288888888886129c1565b50505050505050565b600073ffffffffffffffffffffffffffffffffffffffff168373ffffffffffffffffffffffffffffffffffffffff1614156125ab576040517f08c379a00000000000000000000000000000000000000000000000000000000081526004016125a2906143c6565b60405180910390fd5b60006125b56117c2565b90506125e5818560006125c787612947565b6125d087612947565b60405180602001604052806000815250612758565b600080600085815260200190815260200160002060008673ffffffffffffffffffffffffffffffffffffffff1673ffffffffffffffffffffffffffffffffffffffff1681526020019081526020016000205490508281101561267c576040517f08c379a000000000000000000000000000000000000000000000000000000000815260040161267390614458565b60405180910390fd5b82810360008086815260200190815260200160002060008773ffffffffffffffffffffffffffffffffffffffff1673ffffffffffffffffffffffffffffffffffffffff16815260200190815260200160002081905550600073ffffffffffffffffffffffffffffffffffffffff168573ffffffffffffffffffffffffffffffffffffffff168373ffffffffffffffffffffffffffffffffffffffff167fc3d58168c5ae7397731d063d5bbf3d657854427343f4c083240f7aacaa2d0f62878760405161274992919061450a565b60405180910390a45050505050565b505050505050565b61277f8473ffffffffffffffffffffffffffffffffffffffff16612ba8565b1561293f578373ffffffffffffffffffffffffffffffffffffffff1663bc197c8187878686866040518663ffffffff1660e01b81526004016127c595949392919061461a565b602060405180830381600087803b1580156127df57600080fd5b505af192505050801561281057506040513d601f19601f8201168201806040525081019061280d9190614697565b60015b6128b65761281c6146d1565b806308c379a0141561287957506128316146f3565b8061283c575061287b565b806040517f08c379a00000000000000000000000000000000000000000000000000000000081526004016128709190612ed4565b60405180910390fd5b505b6040517f08c379a00000000000000000000000000000000000000000000000000000000081526004016128ad906147fb565b60405180910390fd5b63bc197c8160e01b7bffffffffffffffffffffffffffffffffffffffffffffffffffffffff1916817bffffffffffffffffffffffffffffffffffffffffffffffffffffffff19161461293d576040517f08c379a00000000000000000000000000000000000000000000000000000000081526004016129349061488d565b60405180910390fd5b505b505050505050565b60606000600167ffffffffffffffff81111561296657612965612f28565b5b6040519080825280602002602001820160405280156129945781602001602082028036833780820191505090505b50905082816000815181106129ac576129ab613b79565b5b60200260200101818152505080915050919050565b6129e08473ffffffffffffffffffffffffffffffffffffffff16612ba8565b15612ba0578373ffffffffffffffffffffffffffffffffffffffff1663f23a6e6187878686866040518663ffffffff1660e01b8152600401612a269594939291906148ad565b602060405180830381600087803b158015612a4057600080fd5b505af1925050508015612a7157506040513d601f19601f82011682018060405250810190612a6e9190614697565b60015b612b1757612a7d6146d1565b806308c379a01415612ada5750612a926146f3565b80612a9d5750612adc565b806040517f08c379a0000000000000000000000000000000000000000000000000000000008152600401612ad19190612ed4565b60405180910390fd5b505b6040517f08c379a0000000000000000000000000000000000000000000000000000000008152600401612b0e906147fb565b60405180910390fd5b63f23a6e6160e01b7bffffffffffffffffffffffffffffffffffffffffffffffffffffffff1916817bffffffffffffffffffffffffffffffffffffffffffffffffffffffff191614612b9e576040517f08c379a0000000000000000000000000000000000000000000000000000000008152600401612b959061488d565b60405180910390fd5b505b505050505050565b6000808273ffffffffffffffffffffffffffffffffffffffff163b119050919050565b828054612bd790613857565b90600052602060002090601f016020900481019282612bf95760008555612c40565b82601f10612c1257803560ff1916838001178555612c40565b82800160010185558215612c40579182015b82811115612c3f578235825591602001919060010190612c24565b5b509050612c4d9190612c51565b5090565b5b80821115612c6a576000816000905550600101612c52565b5090565b6000604051905090565b600080fd5b600080fd5b600073ffffffffffffffffffffffffffffffffffffffff82169050919050565b6000612cad82612c82565b9050919050565b612cbd81612ca2565b8114612cc857600080fd5b50565b600081359050612cda81612cb4565b92915050565b6000819050919050565b612cf381612ce0565b8114612cfe57600080fd5b50565b600081359050612d1081612cea565b92915050565b60008060408385031215612d2d57612d2c612c78565b5b6000612d3b85828601612ccb565b9250506020612d4c85828601612d01565b9150509250929050565b612d5f81612ce0565b82525050565b6000602082019050612d7a6000830184612d56565b92915050565b60007fffffffff0000000000000000000000000000000000000000000000000000000082169050919050565b612db581612d80565b8114612dc057600080fd5b50565b600081359050612dd281612dac565b92915050565b600060208284031215612dee57612ded612c78565b5b6000612dfc84828501612dc3565b91505092915050565b60008115159050919050565b612e1a81612e05565b82525050565b6000602082019050612e356000830184612e11565b92915050565b600081519050919050565b600082825260208201905092915050565b60005b83811015612e75578082015181840152602081019050612e5a565b83811115612e84576000848401525b50505050565b6000601f19601f8301169050919050565b6000612ea682612e3b565b612eb08185612e46565b9350612ec0818560208601612e57565b612ec981612e8a565b840191505092915050565b60006020820190508181036000830152612eee8184612e9b565b905092915050565b600060208284031215612f0c57612f0b612c78565b5b6000612f1a84828501612d01565b91505092915050565b600080fd5b7f4e487b7100000000000000000000000000000000000000000000000000000000600052604160045260246000fd5b612f6082612e8a565b810181811067ffffffffffffffff82111715612f7f57612f7e612f28565b5b80604052505050565b6000612f92612c6e565b9050612f9e8282612f57565b919050565b600067ffffffffffffffff821115612fbe57612fbd612f28565b5b602082029050602081019050919050565b600080fd5b6000612fe7612fe284612fa3565b612f88565b9050808382526020820190506020840283018581111561300a57613009612fcf565b5b835b81811015613033578061301f8882612d01565b84526020840193505060208101905061300c565b5050509392505050565b600082601f83011261305257613051612f23565b5b8135613062848260208601612fd4565b91505092915050565b600080fd5b600067ffffffffffffffff82111561308b5761308a612f28565b5b61309482612e8a565b9050602081019050919050565b82818337600083830152505050565b60006130c36130be84613070565b612f88565b9050828152602081018484840111156130df576130de61306b565b5b6130ea8482856130a1565b509392505050565b600082601f83011261310757613106612f23565b5b81356131178482602086016130b0565b91505092915050565b600080600080600060a0868803121561313c5761313b612c78565b5b600061314a88828901612ccb565b955050602061315b88828901612ccb565b945050604086013567ffffffffffffffff81111561317c5761317b612c7d565b5b6131888882890161303d565b935050606086013567ffffffffffffffff8111156131a9576131a8612c7d565b5b6131b58882890161303d565b925050608086013567ffffffffffffffff8111156131d6576131d5612c7d565b5b6131e2888289016130f2565b9150509295509295909350565b600067ffffffffffffffff82111561320a57613209612f28565b5b602082029050602081019050919050565b600061322e613229846131ef565b612f88565b9050808382526020820190506020840283018581111561325157613250612fcf565b5b835b8181101561327a57806132668882612ccb565b845260208401935050602081019050613253565b5050509392505050565b600082601f83011261329957613298612f23565b5b81356132a984826020860161321b565b91505092915050565b600080604083850312156132c9576132c8612c78565b5b600083013567ffffffffffffffff8111156132e7576132e6612c7d565b5b6132f385828601613284565b925050602083013567ffffffffffffffff81111561331457613313612c7d565b5b6133208582860161303d565b9150509250929050565b600081519050919050565b600082825260208201905092915050565b6000819050602082019050919050565b61335f81612ce0565b82525050565b60006133718383613356565b60208301905092915050565b6000602082019050919050565b60006133958261332a565b61339f8185613335565b93506133aa83613346565b8060005b838110156133db5781516133c28882613365565b97506133cd8361337d565b9250506001810190506133ae565b5085935050505092915050565b60006020820190508181036000830152613402818461338a565b905092915050565b60008060006060848603121561342357613422612c78565b5b600061343186828701612ccb565b935050602084013567ffffffffffffffff81111561345257613451612c7d565b5b61345e8682870161303d565b925050604084013567ffffffffffffffff81111561347f5761347e612c7d565b5b61348b8682870161303d565b9150509250925092565b61349e81612ca2565b82525050565b60006020820190506134b96000830184613495565b92915050565b6000602082840312156134d5576134d4612c78565b5b60006134e384828501612ccb565b91505092915050565b600080fd5b60008083601f84011261350757613506612f23565b5b8235905067ffffffffffffffff811115613524576135236134ec565b5b6020830191508360018202830111156135405761353f612fcf565b5b9250929050565b6000806020838503121561355e5761355d612c78565b5b600083013567ffffffffffffffff81111561357c5761357b612c7d565b5b613588858286016134f1565b92509250509250929050565b61359d81612e05565b81146135a857600080fd5b50565b6000813590506135ba81613594565b92915050565b600080604083850312156135d7576135d6612c78565b5b60006135e585828601612ccb565b92505060206135f6858286016135ab565b9150509250929050565b6000806040838503121561361757613616612c78565b5b600061362585828601612ccb565b925050602061363685828601612ccb565b9150509250929050565b600080600080600060a0868803121561365c5761365b612c78565b5b600061366a88828901612ccb565b955050602061367b88828901612ccb565b945050604061368c88828901612d01565b935050606061369d88828901612d01565b925050608086013567ffffffffffffffff8111156136be576136bd612c7d565b5b6136ca888289016130f2565b9150509295509295909350565b6000806000606084860312156136f0576136ef612c78565b5b60006136fe86828701612ccb565b935050602061370f86828701612d01565b925050604061372086828701612d01565b9150509250925092565b7f455243313135353a2062616c616e636520717565727920666f7220746865207a60008201527f65726f2061646472657373000000000000000000000000000000000000000000602082015250565b6000613786602b83612e46565b91506137918261372a565b604082019050919050565b600060208201905081810360008301526137b581613779565b9050919050565b7f4f776e61626c653a2063616c6c6572206973206e6f7420746865206f776e6572600082015250565b60006137f2602083612e46565b91506137fd826137bc565b602082019050919050565b60006020820190508181036000830152613821816137e5565b9050919050565b7f4e487b7100000000000000000000000000000000000000000000000000000000600052602260045260246000fd5b6000600282049050600182168061386f57607f821691505b6020821081141561388357613882613828565b5b50919050565b7f4241534520555249204e4f542053455400000000000000000000000000000000600082015250565b60006138bf601083612e46565b91506138ca82613889565b602082019050919050565b600060208201905081810360008301526138ee816138b2565b9050919050565b7f5552493a206e6f6e6578697374656e7420746f6b656e00000000000000000000600082015250565b600061392b601683612e46565b9150613936826138f5565b602082019050919050565b6000602082019050818103600083015261395a8161391e565b9050919050565b600081905092915050565b60008190508160005260206000209050919050565b6000815461398e81613857565b6139988186613961565b945060018216600081146139b357600181146139c4576139f7565b60ff198316865281860193506139f7565b6139cd8561396c565b60005b838110156139ef578154818901526001820191506020810190506139d0565b838801955050505b50505092915050565b6000613a0b82612e3b565b613a158185613961565b9350613a25818560208601612e57565b80840191505092915050565b6000613a3d8285613981565b9150613a498284613a00565b91508190509392505050565b7f455243313135353a207472616e736665722063616c6c6572206973206e6f742060008201527f6f776e6572206e6f7220617070726f7665640000000000000000000000000000602082015250565b6000613ab1603283612e46565b9150613abc82613a55565b604082019050919050565b60006020820190508181036000830152613ae081613aa4565b9050919050565b7f455243313135353a206163636f756e747320616e6420696473206c656e67746860008201527f206d69736d617463680000000000000000000000000000000000000000000000602082015250565b6000613b43602983612e46565b9150613b4e82613ae7565b604082019050919050565b60006020820190508181036000830152613b7281613b36565b9050919050565b7f4e487b7100000000000000000000000000000000000000000000000000000000600052603260045260246000fd5b7f4e487b7100000000000000000000000000000000000000000000000000000000600052601160045260246000fd5b6000613be282612ce0565b91507fffffffffffffffffffffffffffffffffffffffffffffffffffffffffffffffff821415613c1557613c14613ba8565b5b600182019050919050565b7f455243313135353a2063616c6c6572206973206e6f74206f776e6572206e6f7260008201527f20617070726f7665640000000000000000000000000000000000000000000000602082015250565b6000613c7c602983612e46565b9150613c8782613c20565b604082019050919050565b60006020820190508181036000830152613cab81613c6f565b9050919050565b6000613cbd82612ce0565b9150613cc883612ce0565b9250827fffffffffffffffffffffffffffffffffffffffffffffffffffffffffffffffff03821115613cfd57613cfc613ba8565b5b828201905092915050565b7f4d41585f4d494e545f4143484945564544000000000000000000000000000000600082015250565b6000613d3e601183612e46565b9150613d4982613d08565b602082019050919050565b60006020820190508181036000830152613d6d81613d31565b9050919050565b7f436f6e7472616374206d65746164617461206973206c6f636b65640000000000600082015250565b6000613daa601b83612e46565b9150613db582613d74565b602082019050919050565b60006020820190508181036000830152613dd981613d9d565b9050919050565b7f53414c4520434c4f534544000000000000000000000000000000000000000000600082015250565b6000613e16600b83612e46565b9150613e2182613de0565b602082019050919050565b60006020820190508181036000830152613e4581613e09565b9050919050565b7f4d494e54204154204c45415354203120414e44204e4f54204d4f52452054484160008201527f4e203320544f4b454e5300000000000000000000000000000000000000000000602082015250565b6000613ea8602a83612e46565b9150613eb382613e4c565b604082019050919050565b60006020820190508181036000830152613ed781613e9b565b9050919050565b7f4d4158203320544f4b454e532050455220414444524553530000000000000000600082015250565b6000613f14601883612e46565b9150613f1f82613ede565b602082019050919050565b60006020820190508181036000830152613f4381613f07565b9050919050565b6000613f5582612ce0565b9150613f6083612ce0565b9250817fffffffffffffffffffffffffffffffffffffffffffffffffffffffffffffffff0483118215151615613f9957613f98613ba8565b5b828202905092915050565b7f494e434f5252454354205041594d454e5420414d4f554e542000000000000000600082015250565b6000613fda601983612e46565b9150613fe582613fa4565b602082019050919050565b6000602082019050818103600083015261400981613fcd565b9050919050565b7f4f776e61626c653a206e6577206f776e657220697320746865207a65726f206160008201527f6464726573730000000000000000000000000000000000000000000000000000602082015250565b600061406c602683612e46565b915061407782614010565b604082019050919050565b6000602082019050818103600083015261409b8161405f565b9050919050565b7f4e487b7100000000000000000000000000000000000000000000000000000000600052601260045260246000fd5b60006140dc82612ce0565b91506140e783612ce0565b9250826140f7576140f66140a2565b5b828204905092915050565b600061410d82612ce0565b915061411883612ce0565b92508282101561412b5761412a613ba8565b5b828203905092915050565b600061414182612ce0565b915061414c83612ce0565b92508261415c5761415b6140a2565b5b828206905092915050565b7f455243313135353a2069647320616e6420616d6f756e7473206c656e6774682060008201527f6d69736d61746368000000000000000000000000000000000000000000000000602082015250565b60006141c3602883612e46565b91506141ce82614167565b604082019050919050565b600060208201905081810360008301526141f2816141b6565b9050919050565b7f455243313135353a207472616e7366657220746f20746865207a65726f20616460008201527f6472657373000000000000000000000000000000000000000000000000000000602082015250565b6000614255602583612e46565b9150614260826141f9565b604082019050919050565b6000602082019050818103600083015261428481614248565b9050919050565b7f455243313135353a20696e73756666696369656e742062616c616e636520666f60008201527f72207472616e7366657200000000000000000000000000000000000000000000602082015250565b60006142e7602a83612e46565b91506142f28261428b565b604082019050919050565b60006020820190508181036000830152614316816142da565b9050919050565b60006040820190508181036000830152614337818561338a565b9050818103602083015261434b818461338a565b90509392505050565b7f455243313135353a206275726e2066726f6d20746865207a65726f206164647260008201527f6573730000000000000000000000000000000000000000000000000000000000602082015250565b60006143b0602383612e46565b91506143bb82614354565b604082019050919050565b600060208201905081810360008301526143df816143a3565b9050919050565b7f455243313135353a206275726e20616d6f756e7420657863656564732062616c60008201527f616e636500000000000000000000000000000000000000000000000000000000602082015250565b6000614442602483612e46565b915061444d826143e6565b604082019050919050565b6000602082019050818103600083015261447181614435565b9050919050565b7f455243313135353a206d696e7420746f20746865207a65726f2061646472657360008201527f7300000000000000000000000000000000000000000000000000000000000000602082015250565b60006144d4602183612e46565b91506144df82614478565b604082019050919050565b60006020820190508181036000830152614503816144c7565b9050919050565b600060408201905061451f6000830185612d56565b61452c6020830184612d56565b9392505050565b7f455243313135353a2073657474696e6720617070726f76616c2073746174757360008201527f20666f722073656c660000000000000000000000000000000000000000000000602082015250565b600061458f602983612e46565b915061459a82614533565b604082019050919050565b600060208201905081810360008301526145be81614582565b9050919050565b600081519050919050565b600082825260208201905092915050565b60006145ec826145c5565b6145f681856145d0565b9350614606818560208601612e57565b61460f81612e8a565b840191505092915050565b600060a08201905061462f6000830188613495565b61463c6020830187613495565b818103604083015261464e818661338a565b90508181036060830152614662818561338a565b9050818103608083015261467681846145e1565b90509695505050505050565b60008151905061469181612dac565b92915050565b6000602082840312156146ad576146ac612c78565b5b60006146bb84828501614682565b91505092915050565b60008160e01c9050919050565b600060033d11156146f05760046000803e6146ed6000516146c4565b90505b90565b600060443d101561470357614786565b61470b612c6e565b60043d036004823e80513d602482011167ffffffffffffffff82111715614733575050614786565b808201805167ffffffffffffffff8111156147515750505050614786565b80602083010160043d03850181111561476e575050505050614786565b61477d82602001850186612f57565b82955050505050505b90565b7f455243313135353a207472616e7366657220746f206e6f6e204552433131353560008201527f526563656976657220696d706c656d656e746572000000000000000000000000602082015250565b60006147e5603483612e46565b91506147f082614789565b604082019050919050565b60006020820190508181036000830152614814816147d8565b9050919050565b7f455243313135353a204552433131353552656365697665722072656a6563746560008201527f6420746f6b656e73000000000000000000000000000000000000000000000000602082015250565b6000614877602883612e46565b91506148828261481b565b604082019050919050565b600060208201905081810360008301526148a68161486a565b9050919050565b600060a0820190506148c26000830188613495565b6148cf6020830187613495565b6148dc6040830186612d56565b6148e96060830185612d56565b81810360808301526148fb81846145e1565b9050969550505050505056fea2646970667358221220bee2c707559d2f96a02df6740beb7a1f911f6472968543a95819e36bc405d59c64736f6c63430008090033",
  "linkReferences": {},
  "deployedLinkReferences": {}
}